:1000000000000320E1040000290500002D05000088
:100010002505000025050000250500000000000062
:10002000000000000000000000000000310500009A
:10003000250500000000000035050000390500001E
:10004000C94B0000114C0000594C0000A14C0000AD
:10005000E94C0000314D0000794D0000C14D000019
:10006000094E0000514E0000994E0000E14E000084
:10007000294F0000714F0000B94F000001500000EF
:100080007D05000025050000250500002505000070
:1000900025050000250500002505000025050000B8
:1000A0008105000085050000890500008D05000020
:1000B00091050000853A0000250500009905000023
:1000C0009D050000A1050000A5050000A905000090
:1000D000AD050000B1050000B505000025050000D4
:1000E0002505000025050000250500002505000068
:1000F0002505000025050000250500002505000058
:100100002505000025050000250500002505000047
:100110002505000025050000250500002505000037
:100120002505000025050000250500002505000027
:100130002505000025050000250500002505000017
:1001400025050000B9050000BD050000C10500003F
:1001500025050000250500002505000025050000F7
:100160002505000025050000C5050000C9050000A3
:10017000CD050000D1050000D5050000D90500001F
:10018000DD050000E10500002D520000D9510000FE
:10019000F551000011520000F50500002505000092
:1001A000250500002505000025050000F9050000D3
:1001B0002505000025050000FD05000001060000E2
:1001C00005060000090600000D06000011060000EB
:1001D0002505000025050000250500002505000077
:1001E0002505000025050000250500002505000067
:1001F0002505000025050000250500002505000057
:100200002505000025050000250500002505000046
:1003F000250500002505000025050000FFFFFFFF83
:10040000FFFFFFFFFFFFFFFFFFFFFFFFFEFFFFFFFD
:1004100010B5054C237833B9044B13B10448AFF33E
:1004200000800123237010BD7800FF1F0000000032
:10043000C0A50000084B10B51BB108490848AFF330
:1004400000800848036803B910BD074B002BFBD0A0
:10045000BDE81040184700BF000000007C00FF1FEF
:10046000C0A500007400FF1F00000000154B002B0A
:1004700008BF134B9D46A3F5803A00218B460F46DB
:100480001348144A121A08F0A6FE0F4B002B00D096
:1004900098470E4B002B00D0984700200021040005
:1004A0000D000D48002802D00C48AFF3008008F082
:1004B00061FE2000290003F0C1FB08F047FE00BFE9
:1004C0000000080000000320000000000000000001
:1004D0007800FF1FEC26FF1F000000000000000056
:1004E00072B60948094901600948804709490A4A22
:1004F0000A4B9A42BEBF51F8040B42F8040BF8E7CE
:1005000062B607488047000008ED00E000000000E8
:1005100021240000E8A500000000FF1F7800FF1F55
:100520006D040000FFF7FEBF3A4800473A48004715
:100530003A4800473A4800473A4800473A48004797
:100540003A4800473A4800473A4800473A48004787
:100550003A4800473A4800473A4800473A48004777
:100560003A4800473A4800473A4800473A48004767
:100570003A4800473A4800473A4800473A48004757
:100580003A4800473A4800473A4800473A48004747
:100590003A4800473A4800473A4800473A48004737
:1005A0003A4800473A4800473A4800473A48004727
:1005B0003A4800473A4800473A4800473A48004717
:1005C0003A4800473A4800473A4800473948004708
:1005D0003848004737480047364800473548004705
:1005E00035480047354800473548004735480047FB
:1005F00035480047354800473548004735480047EB
:1006000034480047334800473248004731480047E4
:1006100030480047290500002D0500003105000085
:1006200035050000390500002505000025050000FE
:100630002505000025050000250500002505000012
:100640002505000025050000250500002505000002
:1006500025050000250500002505000025050000F2
:100660002505000025050000250500004165000066
:100670005D650000394900007949000015710000EE
:1006800055710000F17B000025050000217C000071
:1006900025050000517C000025050000817C00003C
:1006A00025050000B9490000B17C000025050000C7
:1006B00079650000ED5900005D7700002505000018
:1006C000250500002505000025050000056A00003D
:1006D000956500002D5A000081F0004102E000BF46
:1006E00083F0004330B54FEA41044FEA430594EAF2
:1006F000050F08BF90EA020F1FBF54EA000C55EA2D
:10070000020C7FEA645C7FEA655C00F0E2804FEAFD
:100710005454D4EB5555B8BF6D420CDD2C4480EADF
:10072000020281EA030382EA000083EA010180EA0F
:10073000020281EA0303362D88BF30BD11F0004F5D
:100740004FEA01314FF4801C4CEA113102D0404293
:1007500061EB410113F0004F4FEA03334CEA1333CE
:1007600002D0524263EB430394EA050F00F0A780E6
:10077000A4F10104D5F1200E0DDB02FA0EFC22FAE1
:1007800005F2801841F1000103FA0EF2801843FAD5
:1007900005F359410EE0A5F120050EF1200E012AC6
:1007A00003FA0EFC28BF4CF0020C43FA05F3C01804
:1007B00051EBE37101F0004507D54FF0000EDCF17D
:1007C000000C7EEB00006EEB0101B1F5801F1BD326
:1007D000B1F5001F0CD349085FEA30004FEA3C0C2A
:1007E00004F101044FEA445212F5800F80F09A8020
:1007F000BCF1004F08BF5FEA500C50F1000041EB24
:10080000045141EA050130BD5FEA4C0C404141EB27
:10081000010111F4801FA4F10104E9D191F0000F4E
:1008200004BF01460020B1FA81F308BF2033A3F1D1
:100830000B03B3F120020CDA0C3208DD02F1140CC8
:10084000C2F10C0201FA0CF021FA02F10CE002F103
:100850001402D8BFC2F1200C01FA02F120FA0CFCFC
:10086000DCBF41EA0C019040E41AA2BF01EB045145
:10087000294330BD6FEA04041F3C1CDA0C340EDC43
:1008800004F11404C4F1200220FA04F001FA02F386
:1008900040EA030021FA04F345EA030130BDC4F144
:1008A0000C04C4F1200220FA02F001FA04F340EA39
:1008B0000300294630BD21FA04F0294630BD94F0EA
:1008C000000F83F4801306BF81F480110134013DD1
:1008D0004EE77FEA645C18BF7FEA655C29D094EA42
:1008E000050F08BF90EA020F05D054EA000C04BFC0
:1008F0001946104630BD91EA030F1EBF00210020AB
:1009000030BD5FEA545C05D14000494128BF41F049
:10091000004130BD14F580043CBF01F5801130BDAD
:1009200001F0004545F0FE4141F470014FF0000038
:1009300030BD7FEA645C1ABF194610467FEA655CE9
:100940001CBF0B46024650EA013406BF52EA03358B
:1009500091EA030F41F4002130BD00BF90F0000F79
:1009600004BF0021704730B54FF4806404F13204B5
:100970004FF000054FF0000150E700BF90F0000F6E
:1009800004BF0021704730B54FF4806404F1320495
:1009900010F0004548BF40424FF000013EE700BF65
:1009A00042004FEAE2014FEA31014FEA02701FBFF5
:1009B00012F07F4393F07F4F81F06051704792F0C7
:1009C000000F14BF93F07F4F704730B54FF4607441
:1009D00001F0004521F0004120E700BF50EA01028C
:1009E00008BF704730B54FF000050AE050EA010239
:1009F00008BF704730B511F0004502D5404261EBA9
:100A000041014FF4806404F132045FEA915C3FF4E9
:100A1000DCAE4FF003025FEADC0C18BF03325FEA82
:100A2000DC0C18BF033202EBDC02C2F1200300FA37
:100A300003FC20FA02F001FA03FE40EA0E0021FA5C
:100A400002F11444C1E600BF70B54FF0FF0C4CF446
:100A5000E06C1CEA11541DBF1CEA135594EA0C0FFC
:100A600095EA0C0F00F0DEF82C4481EA030621EA37
:100A70004C5123EA4C5350EA013518BF52EA033572
:100A800041F4801143F4801338D0A0FB02CE4FF024
:100A90000005E1FB02E506F00042E0FB03E54FF054
:100AA0000006E1FB03569CF0000F18BF4EF0010E4C
:100AB000A4F1FF04B6F5007F64F5407404D25FEA48
:100AC0004E0E6D4146EB060642EAC62141EA5551FB
:100AD0004FEAC52040EA5E504FEACE2EB4F1FD0C3D
:100AE00088BFBCF5E06F1ED8BEF1004F08BF5FEABB
:100AF000500E50F1000041EB045170BD06F000466D
:100B000046EA010140EA020081EA0301B4EB5C0419
:100B1000C2BFD4EB0C0541EA045170BD41F4801111
:100B20004FF0000E013C00F3AB8014F1360FDEBF36
:100B3000002001F0004170BDC4F10004203C35DA12
:100B40000C341BDC04F11404C4F1200500FA05F395
:100B500020FA04F001FA05F240EA020001F0004236
:100B600021F0004110EBD37021FA04F642EB0601AC
:100B70005EEA430E08BF20EAD37070BDC4F10C04D6
:100B8000C4F1200500FA04F320FA05F001FA04F29A
:100B900040EA020001F0004110EBD37041F1000186
:100BA0005EEA430E08BF20EAD37070BDC4F1200591
:100BB00000FA05F24EEA020E20FA04F301FA05F2F9
:100BC00043EA020321FA04F001F0004121FA04F2A1
:100BD00020EA020000EBD3705EEA430E08BF20EA71
:100BE000D37070BD94F0000F0FD101F000464000AB
:100BF00041EB010111F4801F08BF013CF7D041EA2D
:100C0000060195F0000F18BF704703F00046520030
:100C100043EB030313F4801F08BF013DF7D043EA01
:100C20000603704794EA0C0F0CEA135518BF95EAB7
:100C30000C0F0CD050EA410618BF52EA4306D1D13E
:100C400081EA030101F000414FF0000070BD50EA5D
:100C5000410606BF1046194652EA430619D094EAE7
:100C60000C0F02D150EA013613D195EA0C0F05D1D1
:100C700052EA03361CBF104619460AD181EA030125
:100C800001F0004141F0FE4141F470014FF00000DD
:100C900070BD41F0FE4141F4780170BD70B54FF078
:100CA000FF0C4CF4E06C1CEA11541DBF1CEA1355F8
:100CB00094EA0C0F95EA0C0F00F0A7F8A4EB0504DA
:100CC00081EA030E52EA03354FEA013100F08880D1
:100CD0004FEA03334FF0805545EA131343EA12639A
:100CE0004FEA022245EA111545EA10654FEA00264F
:100CF0000EF000419D4208BF964244F1FD0404F508
:100D0000407402D25B084FEA3202B61A65EB030563
:100D10005B084FEA32024FF480104FF4002CB6EB20
:100D2000020E75EB030E22BFB61A754640EA0C00A0
:100D30005B084FEA3202B6EB020E75EB030E22BFE0
:100D4000B61A754640EA5C005B084FEA3202B6EB21
:100D5000020E75EB030E22BFB61A754640EA9C00E0
:100D60005B084FEA3202B6EB020E75EB030E22BFB0
:100D7000B61A754640EADC0055EA060E18D04FEA6E
:100D8000051545EA16754FEA06164FEAC30343EA0E
:100D900052734FEAC2025FEA1C1CC0D111F4801FDB
:100DA0000BD141EA00014FF000004FF0004CB6E7D4
:100DB00011F4801F04BF01430020B4F1FD0C88BF73
:100DC000BCF5E06F3FF6AFAEB5EB030C04BFB6EB7E
:100DD000020C5FEA500C50F1000041EB045170BD71
:100DE0000EF0004E4EEA113114EB5C04C2BFD4EB9E
:100DF0000C0541EA045170BD41F480114FF0000E22
:100E0000013C90E645EA060E8DE60CEA135594EA9D
:100E10000C0F08BF95EA0C0F3FF43BAF94EA0C0FA0
:100E20000AD150EA01347FF434AF95EA0C0F7FF415
:100E300025AF104619462CE795EA0C0F06D152EA69
:100E400003353FF4FDAE1046194622E750EA41064D
:100E500018BF52EA43067FF4C5AE50EA41047FF45E
:100E60000DAF52EA43057FF4EBAE12E74FF0FF3CC3
:100E700006E000BF4FF0010C02E000BF4FF0010C94
:100E80004DF804CD4FEA410C7FEA6C5C4FEA430C0D
:100E900018BF7FEA6C5C1BD001B050EA410C0CBF5C
:100EA00052EA430C91EA030F02BF90EA020F0020BE
:100EB000704710F1000F91EA030F58BF994208BF25
:100EC00090422CBFD8176FEAE37040F001007047E2
:100ED0004FEA410C7FEA6C5C02D150EA013C07D139
:100EE0004FEA430C7FEA6C5CD6D152EA033CD3D084
:100EF0005DF8040B704700BF8446104662468C467E
:100F00001946634600E000BF01B5FFF7B7FF0028B0
:100F100048BF10F1000F01BD4DF808EDFFF7F4FFD9
:100F20000CBF012000205DF808FB00BF4DF808ED64
:100F3000FFF7EAFF34BF012000205DF808FB00BF87
:100F40004DF808EDFFF7E0FF94BF012000205DF8A9
:100F500008FB00BF4DF808EDFFF7CEFF94BF01205E
:100F600000205DF808FB00BF4DF808EDFFF7C4FF57
:100F700034BF012000205DF808FB00BF4FEA410CA0
:100F80007FEA6C5C02D150EA013C0AD14FEA430C83
:100F90007FEA6C5C02D152EA033C02D14FF00000C0
:100FA00070474FF0010070474FEA410212F50012FE
:100FB00015D211D56FF47873B3EB625212D94FEAA0
:100FC000C12343F0004343EA505311F0004F23FA8A
:100FD00002F018BF404270474FF00000704750EADF
:100FE000013005D111F0004008BF6FF0004070479C
:100FF0004FF00000704700BF4A0011D212F50012F6
:1010000011D20DD56FF47873B3EB62520ED44FEA60
:10101000C12343F0004343EA505323FA02F07047E0
:101020004FF00000704750EA013002D14FF0FF301E
:1010300070474FF0000070477BB972B90029BEBFFE
:1010400000204FF0004106E008BF00281CBF6FF0F1
:1010500000414FF0FF3000F005BAADF1080C6DE92A
:1010600004CE002909DB002B1ADB00F089F8DDF83B
:1010700004E0DDE9022304B07047404261EB410126
:10108000002B1BDB00F07CF8DDF804E0DDE9022337
:1010900004B0404261EB4101524263EB43037047AD
:1010A000524263EB430300F06BF8DDF804E0DDE946
:1010B000022304B0404261EB41017047524263EBAE
:1010C000430300F05DF8DDF804E0DDE9022304B03D
:1010D000524263EB4303704753B94AB9002908BF32
:1010E00000281CBF4FF0FF314FF0FF3000F0BAB9BD
:1010F000ADF1080C6DE904CE00F042F8DDF804E033
:10110000DDE9022304B0704738B50022002304460D
:101110000D46FFF70BFF28B920462946BDE83840A9
:1011200000F00AB8204605F1004100F005F8404201
:1011300061EB410138BD00BFD0B500220E4B064621
:101140000F46FFF781FCFFF757FF0446FFF706FC49
:1011500000220A4BFFF778FC02460B463046394620
:10116000FFF7BEFAFFF748FF2346002242EA0002DB
:1011700010461946D0BD00BF0000F03D0000F04110
:101180002DE9F0478C460E460446089D002B50D1B1
:101190008A4217466CD9B2FA82FEBEF1000F0BD01C
:1011A000CEF1200420FA04F401FA0EF644EA060C0B
:1011B00002FA0EF700FA0EF44FEA1749220CBCFBB4
:1011C000F9F01FFA87F809FB10C642EA064600FB51
:1011D00008F3B34209D9F61900F1FF3280F02281F9
:1011E000B34240F21F8102383E44F61AA2B2B6FB67
:1011F000F9F309FB136642EA064403FB08F8A0452D
:1012000009D9E41903F1FF3280F00A81A04540F2C8
:101210000781023B3C44C8EB040443EA0040002140
:10122000002D62D024FA0EF400232C606B60BDE820
:10123000F0878B4207D9002D55D0002185E8410069
:101240000846BDE8F087B3FA83F1002940F09080AA
:10125000B34202D3824200F2F880841A66EB03069E
:101260000120B446002D40D085E81010BDE8F0877D
:1012700012B90127B7FBF2F7B7FA87FEBEF1000FEC
:1012800035D1F31B4FEA17481FFA87FC0121B3FB46
:10129000F8F0220C08FB103642EA06460CFB00F37D
:1012A000B34207D9F61900F1FF3202D2B34200F27D
:1012B000CE801046F61AA2B2B6FBF8F308FB13660E
:1012C00042EA06440CFB03FCA44507D9E41903F1E8
:1012D000FF3202D2A44500F2B5801346CCEB0404E1
:1012E00043EA00409CE729462846BDE8F087CEF156
:1012F000200106FA0EF307FA0EF720FA01F94FEA79
:101300001748CE4049EA0309B6FBF8FA4FEA1944F8
:1013100008FB1A661FFA87FC44EA06430AFB0CF234
:101320009A4200FA0EF40AD9DB190AF1FF3180F073
:1013300087809A4240F28480AAF1020A3B449B1AB9
:101340001FFA89F9B3FBF8F108FB113349EA0343AB
:1013500001FB0CF69E4207D9DB1901F1FF326BD27B
:101360009E4269D902393B449B1B41EA0A418EE700
:10137000C1F1200E22FA0EF48B40234320FA0EF71F
:1013800006FA01F44FEA134C26FA0EF63C43B6FB7C
:10139000FCF9270C0CFB19661FFA83F847EA06468E
:1013A00009FB08F7B74202FA01F200FA01FA08D97C
:1013B000F61809F1FF3041D2B7423FD9A9F102092D
:1013C0001E44F61BA0B2B6FBFCF40CFB146640EA0C
:1013D000064704FB08F8B84507D9FF1804F1FF30A9
:1013E00028D2B84526D9023C1F4444EA0940C8EB3C
:1013F0000707A0FB02894F4544464E4614D329D027
:1014000065B3BAEB040367EB060707FA0EFECB40A1
:10141000CF404EEA030385E888000021BDE8F0874D
:101420001346F8E61046E0E6B8EB020469EB030663
:101430000138E5E70446D8E7114695E78146C0E75D
:101440008A467CE7023B3C4448E708460AE7023804
:101450003E442FE7C245E7D33E46D1E72946BDE8E3
:10146000F08700BF704700BF034613F8012B002A26
:10147000FBD1181A0138704780B483B000AF786090
:101480000B46FB70FB78002B08D07B68DB78DBB267
:1014900043F00803DAB27B68DA7007E07B68DB7838
:1014A000DBB223F00803DAB27B68DA7000BF0C37D6
:1014B000BD465DF8047B704780B483B000AF7860B0
:1014C0000B46FB70FB78002B08D07B68DB78DBB227
:1014D00043F00403DAB27B68DA7007E07B68DB78FC
:1014E000DBB223F00403DAB27B68DA7000BF0C379A
:1014F000BD465DF8047B704780B483B000AF786070
:101500000B46FB70FB78002B06D07B689B6843F48E
:1015100000227B689A6005E07B689B6823F40022C8
:101520007B689A6000BF0C37BD465DF8047B70474E
:1015300080B483B000AF78600B46FB70FB78002B63
:1015400006D07B689B6843F480227B689A6005E044
:101550007B689B6823F480227B689A6000BF0C370D
:10156000BD465DF8047B704780B58AB000AFF86077
:10157000B9603B601346FB712F4B1B78002B01D0E9
:10158000012355E02C4AFB791370FB79012B02D023
:10159000022B25D049E0FB68274A536007F11C0362
:1015A000184606F05FFABB68FB61234B5B6807F1E6
:1015B0001C013A68184606F03DF91F4B5B68012193
:1015C0001846FFF759FF1C4B5B6801211846FFF7CF
:1015D00073FF194B194A9A60174B194ADA6026E0D3
:1015E000FB68154A536007F11403184605F024F907
:1015F000BB687B61104B5B6807F114013A681846C1
:1016000005F01CF80C4B5B6801211846FFF774FFCE
:10161000094B5B6801211846FFF78AFF064B094A10
:101620009A60054B084ADA6001E0042300E00023D9
:1016300018462837BD4680BD9400FF1F097B000077
:10164000497B000019690000596900000FB480B59A
:1016500082B000AF0B4B1B78002B02D14FF0FF3351
:1016600009E007F114033B603A683969064800F065
:101670008BFA78607B6818460837BD46BDE8804025
:1016800004B070479400FF1F8D16000080B582B033
:1016900000AF7860094B1B78002B02D14FF0FF336D
:1016A00007E0064B9B68054A5068391D01229847A0
:1016B000012318460837BD4680BD00BF9400FF1FB8
:1016C00080B586B000AFB9607A603B600346FB73BB
:1016D000BB687B610CE097F90F203B6A1046984786
:1016E0003B681B685A1C3B681A607B6901337B614D
:1016F0007A697B689A42EEDB00BF1837BD4680BD31
:1017000090B593B000AFF860B9607A603B60002399
:101710007B62FB683B623B6A5A1C3A6200221A7089
:101720007B68002B62D0BB68D3E90034C7E9103472
:10173000D7E91034234354D13B6A30221A707B6AB4
:1017400001337B627B6ABCE03B684FEAE3741A4674
:101750002346D7E91001FFF76FFC03460C46C7E9A3
:1017600006343B684FEAE374BA6904FB02F1FA6994
:1017700003FB02F20A44B969A1FB03342244144674
:10178000D7E91012CB1A62EB0404C7E90E34D7E98B
:101790000E34002B74F100030FDAD7E90E34C7E9D9
:1017A0000A34D7E90A344FF030014FF00002CB1A67
:1017B00062EB0404C7E90E3406E0D7E90E34303397
:1017C00044F10004C7E90E34D7E90634C7E9103400
:1017D0003B6A5A1C3A6297F938201A707B6A0133C7
:1017E0007B62D7E910342343AED169E0BB68D3E90B
:1017F0000034C7E90C34D7E90C3423435CD13B6A8D
:1018000030221A707B6A01337B627B6A59E03B6845
:101810004FEAE3741A462346D7E90C01FFF75CFC54
:1018200003460C46C7E904343B684FEAE3743A695F
:1018300004FB02F17A6903FB02F20A443969A1FB55
:10184000033422441446D7E90C12CB1A62EB040489
:10185000C7E90A34D7E90A34002C08BF0A2B07D29B
:10186000D7E90A34303344F10004C7E90A3416E0FA
:1018700097F85830002B04D04FF041014FF0000290
:1018800003E04FF061014FF00002D7E90A345B1822
:1018900044EB02040A3B44F1FF34C7E90A34D7E9B8
:1018A0000434C7E90C343B6A5A1C3A6297F9282081
:1018B0001A707B6A01337B62D7E90C342343A6D1CB
:1018C0007B6A18464C37BD4690BD00BF0000000043
:1018D000B0B598B000AFF860B9607A603B600023A3
:1018E000FB63FB68BB63BB6B5A1CBA6300221A70B4
:1018F000BB68D3E90034C7E90C344FF000024FF065
:101900000003D7E90C01FFF707FB0346002B07D0C4
:10191000BB6B30221A70FB6B0133FB63FB6B20E166
:1019200007F11003184697ED0C0B06F077FA87EDD8
:10193000100B00237B6511E07868FFF71FF8034662
:101940000C461A462346D7E91001FFF77DF80346F7
:101950000C46C7E910347B6D01337B657A6D3B68BB
:101960009A42E9D34FF000024FF00003D7E90C018F
:10197000FFF7F0FA0346002B2AD04FF00002804B0D
:10198000D7E91001FEF7AEFE03460C46C7E9123454
:101990003868FEF7E3FF03460C4644EC113B9FED2D
:1019A000740B06F095FA51EC100BD7E91223FFF7F0
:1019B000C7FA0346002B35D0D7E904014FF00002E7
:1019C000704BFEF78FFE03460C46C7E9043429E04E
:1019D0004FF000026A4BD7E91001FEF781FE034683
:1019E0000C46C7E912343868FEF7B8FF03460C46C8
:1019F00044EC113B9FED600B06F06AFA51EC100BC2
:101A0000D7E91223FFF7A6FA0346002B0AD0D7E93D
:101A100004014FF000025B4BFEF762FE03460C46EA
:101A2000C7E9043400237B6553E07868FEF7A6FF1E
:101A300003460C461A462346D7E91201FFF72EF952
:101A400003460C46C7E90A34D7E90A01FFF75CFBF5
:101A50000A4601467B684FEAE37403FB02F501FB8B
:101A600004F02844A1FB0334021914461846214609
:101A7000FEF7BCFF03460C461A462346D7E912017F
:101A8000FEF72EFE03460C46C7E90834D7E90801E5
:101A9000FFF78AFA0346BB65BB6D002B06DABB6D08
:101AA000FB61FB69C3F13003BB6502E0BB6D303302
:101AB000BB65D7E90A34C7E91234BB6B5A1CBA6359
:101AC000BA6D52B21A70FB6B0133FB637B6D01334D
:101AD0007B657A6D3B689A42A7D3BB6B5A1CBA638D
:101AE0002E221A70FB6B0133FB63D7E904341846CE
:101AF0002146FFF759FA0346FB65FB6D002B2CD1FD
:101B0000BB6B5A1CBA6330221A70FB6B0133FB6348
:101B100026E0FA6D7B6892FBF3F3BB61BB697A68E0
:101B200002FB03F3FA6DD31ABB65BB6D002B06DA1B
:101B3000BB6DFB61FB69C3F13003BB6502E0BB6DAC
:101B40003033BB65BB69FB65BB6B5A1CBA63BA6DAE
:101B500052B21A70FB6B0133FB63FB6D002BD8D1C3
:101B6000FB6B18466037BD46B0BD00BFAFF30080C9
:101B7000000000000000244000000000000024C01D
:101B80000000E03F0000F03F90B5A5B002AFF86064
:101B9000B9607A600023C7F880300023FB67002318
:101BA000FB62002387F86A304FF000034FF0000417
:101BB000C7E90634BB68C7F8843000F023BCBB6DAE
:101BC000252B07D0FB68B86D9847FB6A0133FB6291
:101BD00000F013BC012387F86B3000237B660023E1
:101BE000BB6752E0D7F884300133C7F88430D7F8A8
:101BF000843093F90030203B102B3ED801A252F8DC
:101C000023F000BF5D1C00007B1C00007B1C00005B
:101C1000711C00007B1C00007B1C00007B1C000072
:101C20007B1C00007B1C00007B1C00007B1C000058
:101C3000531C00007B1C0000491C00007B1C0000A2
:101C40007B1C0000671C00007B6E43F001037B6679
:101C50001BE07B6E43F002037B6616E07B6E43F075
:101C600004037B6611E07B6E43F008037B660CE0A7
:101C70007B6E43F010037B6607E0D7F88430013BAE
:101C8000C7F884300123BB6700BFBB6F002BA9D00E
:101C900000237B670023BB6721E0D7F88430013342
:101CA000C7F88430D7F8843093F90030BB65BB6D3A
:101CB0002F2B0DDDBB6D392B0ADC7A6F13469B0091
:101CC00013445B001A46BB6D1344303B7B6706E050
:101CD000D7F88430013BC7F884300123BB67BB6F62
:101CE000002BDAD006233B67D7F884300133C7F8DE
:101CF0008430D7F8843093F900302E2B2AD100237A
:101D00003B670023BB6721E0D7F884300133C7F875
:101D10008430D7F8843093F90030BB65BB6D2F2B2E
:101D20000DDDBB6D392B0ADC3A6F13469B00134463
:101D30005B001A46BB6D1344303B3B6706E0D7F8A7
:101D40008430013BC7F884300123BB67BB6F002B95
:101D5000DAD004E0D7F88430013BC7F88430D7F8F4
:101D600084300133C7F88430D7F8843093F90030D9
:101D7000682B02D06C2B1AD033E0D7F884300133B3
:101D8000C7F88430D7F8843093F90030682B09D035
:101D90007B6E43F040037B66D7F88430013BC7F885
:101DA000843024E07B6E43F020037B661FE0D7F88D
:101DB00084300133C7F88430D7F8843093F9003089
:101DC0006C2B09D07B6E43F080037B66D7F88430A0
:101DD000013BC7F884300AE07B6E43F480737B6676
:101DE00005E0D7F88430013BC7F8843000BFD7F84E
:101DF00084300133C7F88430D7F8843093F9003049
:101E0000BB65BB6D642B1BD0BB6D692B18D0BB6D44
:101E1000662B15D0BB6D462B12D0BB6D782B0FD027
:101E2000BB6D582B0CD0BB6D6F2B09D0BB6D622BDB
:101E300006D0BB6D702B03D0BB6D752B40F0868236
:101E4000BB6D642B03D0BB6D692B40F094807B6E1F
:101E500003F48073002B0BD07B68073323F0070358
:101E600003F108027A60D3E90034C7E9083407E0D7
:101E70007B681A1D7A601B684FEAE374C7E908346F
:101E800007F1200107F1300097F86B3000930A2327
:101E90000122FFF735FCF86707F13002FB6F1344AE
:101EA000C7F88030D7E90834002B74F1000305DA55
:101EB0002D233B66FB6F0133FB6717E07B6E03F05E
:101EC0000203002B05D02B233B66FB6F0133FB671E
:101ED0000CE07B6E03F00403002B05D020233B664F
:101EE000FB6F0133FB6701E000233B660023FB65CA
:101EF0007B6E03F00803002B17D03B6E002B05D040
:101F0000FB68386E9847FB6A0133FB620123FB656F
:101F10007A6F07F12C01FB6800930B46F96F3020B4
:101F2000FFF7CEFB7B6FFB6719E07B6E03F00103CD
:101F3000002B14D17A6F07F12C01FB6800930B463C
:101F4000F96F2020FFF7BCFB3B6E002B05D0FB6830
:101F5000386E9847FB6A0133FB620123FB65FB6D1A
:101F6000002B08D13B6E002B05D0FB68386E9847DC
:101F7000FB6A0133FB62BB6D662B03D0BB6D462B46
:101F800040F088807B68073323F0070303F10802E1
:101F90007A60D3E90034C7E9043407F1100107F18E
:101FA00030003B6F0A22FFF793FCF86707F130021D
:101FB000FB6F1344C7F88030D7E904014FF00002EB
:101FC0004FF00003FEF7B2FF0346002B05D02D2390
:101FD0003B66FB6F0133FB6717E07B6E03F0020388
:101FE000002B05D02B233B66FB6F0133FB670CE016
:101FF0007B6E03F00403002B05D020233B66FB6FB0
:102000000133FB6701E000233B660023FB657B6E29
:1020100003F00803002B17D03B6E002B05D0FB68A4
:10202000386E9847FB6A0133FB620123FB657A6FC8
:1020300007F12C01FB6800930B46F96F3020FFF786
:102040003FFB7B6FFB6719E07B6E03F00103002B06
:1020500014D17A6F07F12C01FB6800930B46F96FDE
:102060002020FFF72DFB3B6E002B05D0FB68386E60
:102070009847FB6A0133FB620123FB65FB6D002B74
:1020800008D13B6E002B05D0FB68386E9847FB6A81
:102090000133FB62BB6D582B03D0BB6D782B40F036
:1020A000A580BB6D782B02D1002387F86B307B6E47
:1020B00003F48073002B0BD07B68073323F00703F6
:1020C00003F108027A60D3E90034C7E9063407E077
:1020D0007B681A1D7A601B684FF00004C7E906345C
:1020E00007F1180107F1300097F86B3000931023C7
:1020F0000022FFF705FBF86707F13002FB6F13447E
:10210000C7F880300023FB657B6E03F00803002BCB
:1021100023D07B6E03F01003002B11D0FB6830201E
:10212000984797F86B30002B01D0582200E07822B6
:10213000FB6810469847FB6A0233FB620123FB658C
:102140007A6F07F12C01FB6800930B46F96F302082
:10215000FFF7B6FA7B6FFB672DE07B6E03F00103A0
:10216000002B28D17B6E03F01003002B02D0FB6FF5
:102170000233FB677A6F07F12C01FB6800930B4673
:10218000F96F2020FFF79CFA7B6E03F01003002B01
:1021900011D0FB683020984797F86B30002B01D0A6
:1021A000582200E07822FB6810469847FB6A023309
:1021B000FB620123FB657B6E03F01003002B15D03F
:1021C000FB6D002B12D1FB683020984797F86B30DD
:1021D000002B01D0582200E07822FB681046984777
:1021E000FB6A0233FB62FB6F0233FB67BB6D6F2B35
:1021F0000AD17B681A1D7A601B684FF00004C7E99A
:102200000634082387F86A30BB6D622B10D17B68D7
:102210001A1D7A601B684FF00004C7E906340223D8
:1022200087F86A3007F13002FB6F1344C7F880303B
:10223000BB6D702B10D17B681A1D7A601B684FF044
:102240000004C7E90634102387F86A3007F130022A
:10225000FB6F1344C7F88030BB6D752B10D17B68C2
:102260001A1D7A601B684FF00004C7E906340A2380
:1022700087F86A3007F13002FB6F1344C7F88030EB
:10228000BB6D6F2B08D0BB6D622B05D0BB6D702B67
:1022900002D0BB6D752B43D197F86A2007F1180166
:1022A00007F1300097F86B30009313460022FFF7D8
:1022B00027FAF86707F13002FB6F1344C7F8803044
:1022C0007B6E03F00803002B0CD07A6F07F12C0112
:1022D000FB6800930B46F96F3020FFF7F1F97B6F35
:1022E000FB671DE07B6E03F00103002B18D17A6FB2
:1022F00007F12C01FB6800930B46F96F2020FFF7D4
:10230000DFF90DE0D7F880305A1EC7F8802093F926
:1023100000301A46FB6810469847FB6A0133FB629F
:10232000D7F8803093F90030002BEBD17B6E03F0AF
:102330000103002B61D07A6F07F12C01FB68009339
:102340000B46F96F2020FFF7BBF956E0BB6D632BFE
:102350000CD17B681A1D7A601B685BB27B65FB68D9
:10236000786D9847FB6A0133FB6246E0BB6D732BC7
:102370003DD17B681A1D7A601B68FB66FB6E002BE3
:102380003BD0F86EFFF770F80346FB677B6E03F0F7
:102390000103002B16D17A6F07F12C01FB68009323
:1023A0000B46F96F2020FFF78BF90BE0FB6E5A1CF0
:1023B000FA6693F900301A46FB6810469847FB6AA4
:1023C0000133FB62FB6E93F90030002BEED17B6E84
:1023D00003F00103002B10D07A6F07F12C01FB688A
:1023E00000930B46F96F2020FFF76AF905E0FB68C0
:1023F000B86D9847FB6A0133FB62D7F8843001332C
:10240000C7F88430D7F8843093F90030BB65BB6DD2
:10241000002B7FF4D4ABFB6A18468C37BD4690BDC9
:1024200080B400AF0C4A0C4BD3F8883043F47003EF
:10243000C2F88830094B4CF22052DA81074B4DF636
:102440002812DA81054B4FF4E9721A8000BFBD46AD
:102450005DF8047B704700BF00ED00E00020054000
:1024600080B588B000AFF8607B600B467B81134677
:102470003B81B7F90A30FA681289934280F21281DF
:10248000B7F90830FA685289934280F20B81B7F9A4
:102490000A30002BC0F20681B7F90830002BC0F2D9
:1024A0000181FB681B78052B00F2FB8001A252F82A
:1024B00023F000BFCD24000043250000ED250000DF
:1024C000152600004126000079260000FB681B89C4
:1024D0000733DB10FB61B7F90830FA6902FB03F33D
:1024E000B7F90A20D21012B21344BB617B8903F002
:1024F0000703012202FA03F3FB757B68002B0DD062
:10250000FB685A68BB691344FA685168BA690A449F
:102510001178FA7D0A43D2B21A70C3E0FB685A6898
:10252000BB691344FA685168BA690A44127851B217
:1025300097F91720D24352B20A4052B2D2B21A705F
:10254000B0E0FB681B8901335B10FB61B7F9083011
:10255000FA6902FB03F3B7F90A20521012B21344CE
:10256000BB617B8903F00103002B20D0FB685A6814
:10257000BB691344FA685168BA690A44127822F0B8
:102580000F02D2B21A70FB685A68BB691344FA682A
:102590005168BA690A44127851B27A6852B202F0AC
:1025A0000F0252B20A4352B2D2B21A707AE0FB68FA
:1025B0005A68BB691344FA685168BA690A441278C8
:1025C00002F00F02D2B21A70FB685A68BB6913445A
:1025D000FA685168BA690A44127851B27A681201ED
:1025E00052B20A4352B2D2B21A705BE0FB681B8946
:1025F000FB61B7F90830FA6902FB03F2B7F90A3058
:102600001344BB61FB685A68BB6913447A68D2B251
:102610001A7047E0FB681B895B00FB61B7F9083063
:10262000FA6902FB03F3B7F90A2052001344BB61B5
:10263000FB685A68BB6913447A6892B21A8031E029
:10264000FB681B891A4613465B001344FB61B7F90C
:102650000830FA6902FB03F1B7F90A2013465B0060
:1026600013440B44BB61FB685A68BB691344391DB2
:102670000322184606F0A4FDFB681B899B00FB6142
:10268000B7F90830FA6902FB03F3B7F90A209200A0
:102690001344BB61FB685A68BB6913447A681A60CB
:1026A00000E000BF00BF2037BD4680BD80B487B0CA
:1026B00000AF78600B467B8013463B8000233B6174
:1026C00000237B61B7F902307A681289934280F265
:1026D000E480B7F900307A685289934280F2DD8055
:1026E000B7F90230002BC0F2D880B7F90030002BC8
:1026F000C0F2D3807B681B78052B00F2CD8001A24D
:1027000052F823F01D2700006D270000BF270000AE
:10271000E52700000F2800006F2800007B681B8958
:102720000733DB10FB60B7F90030FA6802FB03F3F4
:10273000B7F90220D21012B213443B617B8803F038
:102740000703012202FA03F3FB727B685A683B69B4
:1027500013441A78FB7A1340DBB2002B03D04FF0FE
:10276000FF337B6199E000237B6196E07B681B89E6
:1027700001335B10FB60B7F90030FA6802FB03F32A
:10278000B7F90220521012B213443B617B8803F068
:102790000103002B08D07B685A683B6913441B78FF
:1027A00003F00F037B6178E07B685A683B69134450
:1027B0001B781B09DBB203F00F037B616DE07B68C4
:1027C0001B89FB60B7F90030FA6802FB03F2B7F926
:1027D000023013443B617B685A683B6913441B78A1
:1027E0007B615AE07B681B895B00FB60B7F90030B6
:1027F000FA6802FB03F3B7F90220520013443B616D
:102800007B685A683B6913441B887B6145E07B68A1
:102810001B891A4613465B001344FB60B7F900306E
:10282000FA6802FB03F1B7F9022013465B00134478
:102830000B443B617B685A683B6913441B787B619E
:102840007B685A683B69013313441B781B021A46A4
:102850007B6913437B617B685A683B69023313448D
:102860001B781B041A467B6913437B6115E07B6868
:102870001B899B00FB60B7F90030FA6802FB03F389
:10288000B7F90220920013443B617B685A683B69A8
:1028900013441B687B6100E000BF7B6918461C374E
:1028A000BD465DF8047B704780B58AB000AFF86024
:1028B000084611461A4603467B810B463B81134668
:1028C000FB800023FB74B7F90620B7F90A309A425F
:1028D00008DD7B89FB84FB88BB843B897B843B8E42
:1028E0003B8407E0FB88FB847B89BB843B8E7B8435
:1028F0003B893B84B7F92020B7F924107B6BF8683B
:10290000FFF7AEFDB7F92020B7F922309A4207DB76
:102910003A8C7B8CD31A9BB2FB830023FB7406E0BA
:102920007A8C3B8CD31A9BB2FB830123FB74BA8C49
:10293000FB8CD31A9BB23B82B7F91E20B7F910303B
:102940009A4248DC7B8C3B83FB8CFB82B7F91030CE
:102950005B10BB830023BB8236E0B7F91820B7F9C0
:1029600016107B6BF868FFF77BFDB7F916309BB24A
:1029700001339BB2FB82BA8BFB8B13449BB2BB83AC
:10298000B7F91C20B7F910309A4217DBBA8B3B8A93
:10299000D31A9BB2BB83B7F92020B7F922309A42F1
:1029A00006DDB7F918309BB201339BB23B8305E0DB
:1029B000B7F918309BB2013B9BB23B83B7F9143097
:1029C0009BB201339BB2BB82B7F91420B7F9103028
:1029D0009A42C2DB51E07B8C3B83FB8CFB82B7F9D4
:1029E0001E305B107B830023BB8240E0B7F91820C8
:1029F000B7F916107B6BF868FFF732FDFB7C002BF4
:102A000006D0B7F918309BB2013B9BB23B8305E07F
:102A1000B7F918309BB201339BB23B837A8B3B8A68
:102A200013449BB27B83B7F91A20B7F91E309A4240
:102A300017DB7A8BFB8BD31A9BB27B83B7F92420ED
:102A4000B7F926309A4206DDB7F916309BB201334A
:102A50009BB2FB8205E0B7F916309BB2013B9BB2FB
:102A6000FB82B7F914309BB201339BB2BB82B7F93A
:102A70001420B7F91E309A42B8DB00BF2837BD4694
:102A800080BD00BF80B485B000AFF860B96011466A
:102A90001A460B46FB801346BB80FB68BA685A6037
:102AA000FA88FB681A81BA88FB685A81FB683A7E0B
:102AB0001A7000BF1437BD465DF8047B704700BF35
:102AC00080B485B000AF78600023BB600023FB605A
:102AD0007B681B78052B00F2AC8001A252F823F032
:102AE000F92A00002D2B0000612B0000932B000021
:102AF000C92B0000012C00007B681B890733DB1009
:102B00007A68528902FB03F3BB600023FB6008E094
:102B10007B685A68FB68134400221A70FB68013313
:102B2000FB60FA68BB689A42F2D383E07B681B893A
:102B300001335B107A68528902FB03F3BB60002308
:102B4000FB6008E07B685A68FB68134400221A7037
:102B5000FB680133FB60FA68BB689A42F2D369E014
:102B60007B681B891A467B685B8903FB02F3BB60A9
:102B70000023FB6008E07B685A68FB68134400226E
:102B80001A70FB680133FB60FA68BB689A42F2D3A3
:102B900050E07B681B895B007A68528902FB03F373
:102BA000BB600023FB6009E07B685A68FB685B0040
:102BB000134400221A80FB680133FB60BB685A088B
:102BC000FB689A42F0D835E07B681B891A461346A9
:102BD0005B0013447A68528902FB03F3BB60002355
:102BE000FB6008E07B685A68FB68134400221A7097
:102BF000FB680133FB60FA68BB689A42F2D319E0C4
:102C00007B681B899B007A68528902FB03F3BB60D7
:102C10000023FB6008E07B685A68FB6813440022CD
:102C20001A70FB680133FB60FA68BB689A42F2D302
:102C300000E000BF00BF1437BD465DF8047B70475D
:102C400080B400AF1A4A1A4B5B6923F00403536146
:102C5000184A184B5B6923F000735361164A164BF0
:102C60005B6923F480235361134A134B5B6923F49C
:102C700080635361114A114B5B6923F00103536177
:102C80000E4A0E4B5B6923F0040353610B4A0B4B56
:102C90005B6923F008035361084A084B5B6923F022
:102CA0000203536100BFBD465DF8047B704700BF5F
:102CB00080F00F4000F00F4040F00F40C0F00F4098
:102CC00080B400AF1A4A1A4B5B6943F004035361A6
:102CD000184A184B5B6943F000735361164A164B50
:102CE0005B6943F480235361134A134B5B6943F4DC
:102CF00080635361114A114B5B6943F001035361D7
:102D00000E4A0E4B5B6943F0040353610B4A0B4BB5
:102D10005B6943F008035361084A084B5B6943F061
:102D20000203536100BFBD465DF8047B704700BFDE
:102D300080F00F4000F00F4040F00F40C0F00F4017
:102D400080B483B000AF00237B6002E07B68013376
:102D50007B607B68092BF9D900BF0C37BD465DF855
:102D6000047B704780B500AF3A493A4B03F5815375
:102D700018331B6843F4785201F5815318331A60F5
:102D8000354A354B5B6943F480735361324A324BA9
:102D90005B6943F4805353612F4A2F4B5B6943F0C7
:102DA000200353612C4A2C4B5B6943F4006353614D
:102DB000294A294B5B6943F480635361274B4FF4E5
:102DC000A0721A62254B4FF4A0721A63234B4FF482
:102DD000A0725A61214B4FF4A072DA621F4B4FF47C
:102DE000A0729A621D4B4FF4A0729A601C4B4FF474
:102DF000A0725A661B4B4FF4A0729A64194B4FF4A1
:102E0000A0729A62184B4FF4A0721A60164B4FF4DE
:102E1000A0729A60144B4FF4A072DA60124B4FF418
:102E2000A0725A600C4B4FF400625A600A4B4FF488
:102E300080625A60084B4FF480729A60064B4FF4E0
:102E400080529A60044B20229A60FFF7F9FE00BF7F
:102E500080BD00BF0070044080F00F4000B004400F
:102E60000090044000A0044000C0044080B582B03F
:102E700000AF0346FB71FFF723FFFB7903F001036B
:102E8000002B03D0314B04225A6002E02F4B042266
:102E90009A60FB7903F00203002B04D02C4B4FF017
:102EA00000725A6003E02A4B4FF000729A60FB797F
:102EB00003F00403002B04D0264B4FF480225A6009
:102EC00003E0244B4FF480229A60FB7903F008035F
:102ED000002B04D01F4B4FF480625A6003E01D4B5F
:102EE0004FF480629A60FB7903F01003002B03D04B
:102EF000194B01225A6002E0174B01229A60FB79BC
:102F000003F02003002B03D0134B04225A6002E08D
:102F1000114B04229A60FB7903F04003002B03D08D
:102F20000D4B08225A6002E00B4B08229A6097F979
:102F30000730002B03DA084B02225A6002E0064BEE
:102F400002229A6000BF0837BD4680BD80F00F4066
:102F500000F00F4040F00F40C0F00F4080B582B04D
:102F600000AF0346FB71FFF7ABFEFB791846FFF796
:102F70007DFFFFF7E5FE064B20225A60FFF7E0FEDB
:102F8000034B20229A6000BF0837BD4680BD00BFBA
:102F900080F00F4080B584B000AF78600B467B8036
:102FA000154B4FF480729A60134B4FF480529A6025
:102FB000114B4FF480629A60FFF7C2FE0023FB8141
:102FC0000BE0FB897A6813441B781846FFF7C6FFAD
:102FD000FFF7B6FEFB890133FB81FA897B889A42B1
:102FE000EFD3FFF7ADFE044B4FF480625A6000BF91
:102FF0001037BD4680BD00BF80F00F4080B582B065
:1030000000AFA423FB71FB1D01211846FFF7C2FF8F
:1030100000BF0837BD4680BD80B582B000AFAF238A
:10302000FB71FB1D01211846FFF7B4FF00BF0837F5
:10303000BD4680BD80B582B000AFAE23FB71FB1DE5
:1030400001211846FFF7A6FF00BF0837BD4680BD27
:1030500080B584B000AF03460A46FB711346BB71CE
:1030600015233B73FB797B73BB79BB7307F10C03AF
:1030700003211846FFF78EFF00BF1037BD4680BD05
:1030800080B584B000AF03460A46FB711346BB719E
:1030900075233B73FB797B73BB79BB7307F10C031F
:1030A00003211846FFF776FF00BF1037BD4680BDED
:1030B00080B584B000AF0346FB71A8233B73FB7956
:1030C0007B7307F10C0302211846FFF763FF00BF73
:1030D0001037BD4680BD00BF80B584B000AF034649
:1030E000FB71A1233B73FB797B7307F10C03022176
:1030F0001846FFF74FFF00BF1037BD4680BD00BF29
:1031000080B584B000AF0346FB71A2233B73FB790B
:103110007B7307F10C0302211846FFF73BFF00BF4A
:103120001037BD4680BD00BF80B584B000AF0346F8
:10313000FB71A0233B73FB797B7307F10C03022126
:103140001846FFF727FF00BF1037BD4680BD00BF00
:1031500080B584B000AF0346FB71FB793B7307F188
:103160000C0301211846FFF715FF00BF1037BD46BD
:1031700080BD00BF80B584B000AF0346FB71B223B1
:103180003B73FB797B7307F10C0302211846FFF7B1
:1031900001FF00BF1037BD4680BD00BF80B584B0C1
:1031A00000AF0346FB71AD233B73FB7943F0020391
:1031B000DBB27B7307F10C0302211846FFF7EAFE2E
:1031C00000BF1037BD4680BD80B584B000AF034658
:1031D000FB71B1233B73FB797B7307F10C03022175
:1031E0001846FFF7D7FE00BF1037BD4680BD00BFB1
:1031F00080B584B000AF0346FB71BC233B73FB7901
:103200007B7307F10C0302211846FFF7C3FE00BFD2
:103210001037BD4680BD00BF80B584B000AF034607
:103220000A46FB711346BB710223FB73B4233B7345
:10323000BB797B73FB7B9AB207F10C0311461846EE
:10324000FFF7A8FEFB79202B0ED1B0233B73FB794F
:1032500043F00803DBB27B73FB7B9AB207F10C03EC
:1032600011461846FFF796FE00BF1037BD4680BDD9
:1032700080B584B000AF0346FB71BE233B73FB797E
:103280007B7307F10C0302211846FFF783FE00BF92
:103290001037BD4680BD00BF80B584B000AF034687
:1032A000FB71BF233B73FB7943F00203DBB27B73FB
:1032B00007F10C0302211846FFF76CFE00BF103720
:1032C000BD4680BD80B584B000AF0346FB71B3231B
:1032D0003B73FB797B7307F10C0302211846FFF760
:1032E00059FE00BF1037BD4680BD00BF80B584B019
:1032F00000AFB8233B7101237B711123BB712223E3
:10330000FB7132233B7243237B725423BB726523D0
:10331000FB7276233B733B1D09211846FFF73AFEEB
:1033200000BF1037BD4680BD80B584B000AF0346F6
:10333000FB7181233B73FB797B7307F10C03022143
:103340001846FFF727FE00BF1037BD4680BD00BFFF
:1033500080B582B002AF01230093402380222B4925
:103360002B48FFF78FFBFFF7FDFC2A4B4FF4006261
:103370005A60FFF7E5FC274B4FF400629A60FFF7B5
:10338000DFFC244B4FF400625A60FFF7D9FCFFF7D3
:1033900051FE9120FFF796FF3F20FFF789FE4C205A
:1033A000FFF7AEFE0020FFF797FE0020FFF7F6FEC6
:1033B0005020FFF7B9FE8620FFF7CAFEFFF796FF01
:1033C000CC20FFF7B1FF5120FFF7D4FE5520FFF7C7
:1033D000FBFE1020FFF70CFF02212020FFF71CFF4F
:1033E0001C20FFF745FF0D20FFF756FFFFF706FEF5
:1033F000FFF712FE3F210020FFF72AFE3F210020A9
:10340000FFF73EFE00BFBD4680BD00BF000AFF1FA4
:10341000001AFF1F80F00F4080B584B000AF7860C5
:10342000244B4FF480725A60224B4FF480529A60C2
:10343000204B4FF480629A600023BB732FE000237F
:10344000FB7326E0FB7B9BB25B009BB21BB2BA7B9B
:1034500012B219467868FFF729F903467B73FB7BA4
:103460009BB25B009BB201339BB21BB2BA7B12B220
:1034700019467868FFF71AF903461B01DAB27B7B1D
:1034800013447B737B7B1846FFF768FDFB7B01339E
:10349000FB73FB7B3F2BD5D9BB7B0133BB73BB7B62
:1034A0003F2BCCD9034B4FF480625A6000BF1037DA
:1034B000BD4680BD80F00F4080B483B000AF0346AE
:1034C000FB71094997F907305B09FA7902F01F028D
:1034D000012000FA02F241F8232000BF0C37BD465C
:1034E0005DF8047B704700BF00E100E080B485B068
:1034F00000AF78607B681B0C03F1804303F58E23DB
:10350000FB60FB68FA6811687A6892B2012000FAE1
:1035100002F20A431A6000BF1437BD465DF8047B0F
:10352000704700BF80B586B000AFF860B9607A60C0
:103530007B68002B05D1094B094AD221094801F0CB
:10354000BBF9BB689B00FA6813447B617B697A68AE
:1035500012881A8000BF1837BD4680BDEC9100006C
:10356000BC9F0000F491000080B485B000AFF8600B
:10357000B9607A603B607B68002B02D1084B012266
:103580001A707B6840F24E42934202D1054B0122F1
:103590001A7000BF1437BD465DF8047B704700BF4A
:1035A000A400FF1FA500FF1F80B588B000AF7860A2
:1035B000084611461A460346FB700B46BB7013467D
:1035C0007B70002000F048F807F108031822002162
:1035D000184605F000FEFB783B7300237B73BB7835
:1035E0003B6101233B757B1CBB610123FB61002315
:1035F000BB6007F108031A461349144802F006FF9E
:1036000000BF134B1B78DBB283F00103DBB2002B4E
:1036100007D0104B1B78DBB283F00103DBB2002B29
:10362000EFD10B4B00221A700A4B1B78DBB2002B38
:1036300004D0084B00221A70012300E00023184632
:103640002037BD4680BD00BF181CFF1F007006401C
:10365000A500FF1FA400FF1F80B584B000AF034684
:10366000FB710023BB81FB79002B14D03B7B6FF3F4
:1036700001033B733B7B43F040033B733B7B6FF3A6
:1036800045133B737B7B012262F302037B73134B75
:1036900001221A700FE03B7B43F003033B737B7BFB
:1036A000022262F302037B733B7B43F020033B73F4
:1036B0000A4B00221A7007F10C031A460B21084826
:1036C000FFF730FF07F10C031A460A210448FFF701
:1036D00029FF00BF1037BD4680BD00BFA600FF1FF9
:1036E00000B0044090B587B000AF78604048FFF765
:1036F000FDFE404A3F4BD3F8803023F04043C2F8F0
:1037000080303C4A3B4BD3F8803043F08053C2F8C2
:103710008030384A374B9B6823F040439360354AEA
:10372000344BD3F8883023F04043C2F88830314A14
:10373000304BD3F8883043F08043C2F888302D4AAC
:103740002C4BD3F8883023F04053C2F88830294AF4
:10375000284B9B6823F040539360264A254BD3F8AF
:10376000883043F00053C2F88830224A214B9B68CE
:1037700043F0005393601F4A1E4BD3F8883043F048
:103780000073C2F888301B4A1A4BD3F8883023F0F4
:103790004063C2F88830174A164BD3F8883043F09C
:1037A0008063C2F88830134A124BD3F8883043F054
:1037B0008073C2F888307B6845F2226293420FD052
:1037C00045F22262934204D842F61132934207D066
:1037D00016E04AF64442934202D0074A93420FD180
:1037E000FF233B6140F6A123FB60044B7B610FE0AC
:1037F0000F003C1000F0024088580100A634AC00D5
:103800003F233B614FF41C73FB60994B7B6100BF0E
:103810007B6907EE903AB8EE677A7B6807EE903ADC
:10382000F8EE677ADFED936A67EEA67AC7EE276A4D
:1038300016EE900AFDF7B4F84FF000028E4BFCF73D
:1038400051FF03460C4618462146FDF7D5FB0346BB
:10385000BB60BB685B08BB60BB68013BBB60874A61
:10386000864BD3F8003143F08043C2F80031834ADD
:10387000824BD3F8003123F04073C2F800317F4906
:103880003B691A03FB681344C1F804317B4A7B4B44
:10389000D3F8883023F0FF03C2F888307749774B9C
:1038A000D3F88820BB681343C1F88830734A734B40
:1038B0001B6823F040431360704A704B1B6843F051
:1038C000805313606D4A6D4B9B6843F08043936057
:1038D0006A4A6A4B9B6823F040639360674A674B70
:1038E0009B6843F080639360644A644B9B6843F039
:1038F00080739360614A614B9B6823F0FF03936080
:103900005E495E4B9A68BB6813438B605B4A5B4BB6
:10391000D3F8903023F04073C2F89030574A574B99
:103920001B6923F040731361544A544BD3F8903011
:1039300023F4F813C2F89030504A504BD3F890302B
:1039400043F48033C2F890304C4A4C4B1B6923F44B
:10395000F8131361494A494B1B6943F480331361DF
:10396000464A464BD3F8903043F4F853C2F89030AF
:10397000424A424B1B6943F4F85313613F4A3F4BA1
:10398000D3F8903043F01003C2F890303B4A3B4BE1
:103990001B6943F010031361384A384BD3F8903059
:1039A00043F00803C2F89030344A344B1B6943F0AB
:1039B00008031361314A314BD3F8903043F00303CD
:1039C000C2F890302D4A2D4B1B6943F0030313615D
:1039D0002A4B2B4AC3F89420284B294A5A61274B7B
:1039E00003225A60254A254BDB6843F48033D360B9
:1039F000224A224BD3F88C3043F48033C2F88C3007
:103A00001E4B0422C3F884201C4A1C4BD3F8803080
:103A100043F48073C2F88030184A184BD3F88030D2
:103A200043F48053C2F88030144A144BD3F88030EA
:103A300023F01F03C2F88030104A104BD3F88030B7
:103A4000C2F880301D20FFF737FD0C4A0B4BD3F82E
:103A5000803043F00043C2F88030084A074B1B68AF
:103A600043F00043136000BF1C37BD4690BD00BF4C
:103A7000607FBB00000080420000E03F00F0024099
:103A8000001F1F1F80B400AF1B4BD3F8803023F4FE
:103A90008013002B2AD0184A174BD3F8803043F4F8
:103AA0008013C2F88030154B1A68154B1B78DBB2B7
:103AB0009B001344104AD2F8A02012121A600E4A3A
:103AC0000D4BD3F8A03013620D4B1B78DBB20133E2
:103AD000DAB20B4B1A700A4B1B78DBB2802B05D184
:103AE000074B00221A70074B00221A7000BFBD4618
:103AF0005DF8047B704700BF00F002400C1AFF1F06
:103B0000A800FF1FA700FF1F80B588B000AF786036
:103B10000023BB6107F10C03184602F07DFA424B0B
:103B20003B61022000F01AFBB86107F10C03BA698F
:103B300019463E4802F0FCF900233D4A3D493B4806
:103B400002F022FC882323221A213848FFF72CFD9B
:103B5000052322221A213548FFF726FD00232722BC
:103B60001A213248FFF720FD0023FB6102E0FB69C8
:103B70000133FB61FB69304A9342F8DD80239022D8
:103B80001A212A48FFF710FD022394221A21274800
:103B9000FFF70AFDC82329221A212448FFF704FD54
:103BA000882338221A212148FFF7FEFCAA2362222B
:103BB0001A211E48FFF7F8FC882363221A211B48AC
:103BC000FFF7F2FCA82365221A211848FFF7ECFC46
:103BD000022339221A211548FFF7E6FC0523342277
:103BE0001A211248FFF7E0FCA82366221A210F4889
:103BF000FFF7DAFC802332221A210C48FFF7D4FCAD
:103C0000A02367221A210948FFF7CEFCA0236822CF
:103C10001A210648FFF7C8FC7868FFF763FD00BF6C
:103C20002037BD4680BD00BFA08601000070064061
:103C300069350000181CFF1F9F86010080B582B007
:103C400002AF04F0D5F804F06FF804F037F8002064
:103C5000FFF702FD4FF47A50FFF756FF0120FFF700
:103C6000FBFCFFF775FB0848FEF72AFF0F230193C3
:103C70001F2300937F231F2200210348FEF714FE19
:103C80000148FFF7C9FBEEE7001AFF1F80B483B0BD
:103C900000AF78600849084B1B6823F440227B681A
:103CA0009B0403F4402313430B6000BF0C37BD4655
:103CB0005DF8047B704700BF0070044080B485B09D
:103CC00000AFF860B9607A601149114B03F5805379
:103CD00004331B6823F44032FB681B0403F44033B5
:103CE0001A4301F5805304331A600949BB685B002D
:103CF00003F00E027B6803F001031A4301F58353BE
:103D000004331A6000BF1437BD465DF8047B70476A
:103D10000070044080B485B000AF786039607B6883
:103D20001B78FB73FB7B03F05F03FB733B681A7824
:103D3000FB7B1343FB737B68FA7B1A703B685B78F1
:103D40009B01DAB27B689A7000BF1437BD465DF8FC
:103D5000047B704780B485B000AF78600B46FB7081
:103D60007B681B78FB73FB7B23F00F03FB73FA7BF1
:103D7000FB781343FB737B68FA7B1A7000BF143720
:103D8000BD465DF8047B704780B582B000AF194B2B
:103D90001B7BDBB203F00303012B12D0012B02D3F8
:103DA000022B1CD01EE0144B1B68002B05D1134BBB
:103DB000134ADA21134800F07FFD0F4B1B687B602C
:103DC00013E0114B1B68002B05D1104B0C4ADF216F
:103DD0000C4800F071FD0C4B1B687B6005E00C4B40
:103DE0007B6002E000237B6000BF7B6818460837D9
:103DF000BD4680BD00400640E026FF1F4492000003
:103E0000D09F000050920000DC26FF1F6892000047
:103E1000006CDC0280B582B000AFFFF7B5FF7860C0
:103E20007B68002B01D17B684EE0294B1B78DBB20D
:103E300003F03803DB08FB70FB787A6822FA03F39F
:103E40007B60234B5B78DBB203F030031B09BB7054
:103E50001F4B1B7BDBB203F003037B70BB78002B93
:103E600002D07B78002B02D07B78022B2BD1FB7801
:103E7000072B25D801A252F823F000BF9D3E000079
:103E80009D3E00009D3E00009D3E00009D3E0000C6
:103E90009D3E0000A53E0000B33E00007B685B092C
:103EA0007B6010E07B680B4AA2FB03231B097B604D
:103EB00009E07B68084AA2FB0323DB087B6002E081
:103EC00000237B6000BF7B6818460837BD4680BD75
:103ED00000400640CDCCCCCCABAAAAAA80B400AF9F
:103EE0000C4B9B79DBB203F00103002B02D10A4B90
:103EF0001B6809E0094B1A68064B1B7ADBB203F01A
:103F00000E035B0822FA03F31846BD465DF8047BF6
:103F1000704700BF004006400400FF1F0800FF1F5D
:103F200080B500AF074B9B79DBB203F010031B0990
:103F3000002B03D1FFF76EFF034601E0024B1B6825
:103F4000184680BD004006400400FF1F80B500AF4A
:103F5000FFF71AFF0346184680BD00BF80B485B046
:103F600000AF78607B6849F69702934202D800233D
:103F7000FB7308E07B68074A934202D80123FB7376
:103F800001E00223FB73FB7B18461437BD465DF846
:103F9000047B704700127A0080B500AF0B4B1B7892
:103FA000DBB25BB2002B0DDA094B1B68002B06D18C
:103FB000084B094A40F26B11084800F07DFC044BA5
:103FC0001B6800E00023184680BD00BF005006407B
:103FD000E026FF1F44920000E89F0000509200007E
:103FE00080B500AF0F4B1B78DBB25BB2002B15DA4C
:103FF0000D4B1B68002B06D10C4B0D4A40F279117A
:104000000C4800F059FC084B1A68064B9B78DBB251
:1040100003F0C0039B0922FA03F300E000231846D3
:1040200080BD00BF00500640E026FF1F4492000004
:1040300004A000005092000080B582B000AF194B80
:104040001B6803F440239B0C022B0FD0032B1CD0C6
:10405000002B1ED1FFF7C4FF0346B3F5004F02D17A
:104060004FF4004300E000237B6015E00E4B1B681B
:10407000002B06D10D4B0E4A40F28D110D4800F079
:104080001BFC094B1B687B6006E04FF47A737B6076
:1040900002E000237B6000BF7B6818460837BD46FE
:1040A00080BD00BF00700440DC26FF1F6892000046
:1040B00020A000005092000080B582B000AF1B4BE2
:1040C00003F5805304331B6803F440331B0C012BAE
:1040D00008D0012B02D3032B08D00AE000F050F9DE
:1040E000786009E000F0B2F9786005E0104B7B6081
:1040F00002E000237B6000BF0C4B03F583530433C5
:104100001B6803F0010301337A6802FB03F2074BDB
:1041100003F5835304331B6803F00E035B0801337C
:10412000B2FBF3F318460837BD4680BD007004406B
:10413000006CDC0280B500AF00F0DAF80246064BF6
:1041400003F5825304331B6803F070431B0F0133E4
:10415000B2FBF3F3184680BD0070044080B584B014
:1041600000AF0346FB71FB79132B00F2928001A292
:1041700052F823F0C5410000C5410000E5410000B0
:104180000542000025420000934200004542000025
:104190004D42000055420000934200005D42000085
:1041A000654200006D420000754200007D42000043
:1041B00093420000934200009342000085420000B9
:1041C0008B42000000F094F80246364B03F5825310
:1041D00004331B6803F070431B0F0133B2FBF3F38E
:1041E000FB6059E000F084F802462E4B03F5825341
:1041F00004331B6803F070631B0E0133B2FBF3F34F
:10420000FB6049E000F074F80246264B03F5825348
:1042100004331B6803F470031B0D0133B2FBF3F38B
:10422000FB6039E000F064F802461E4B03F5825350
:1042300004331B6803F470231B0C0133B2FBF3F34C
:10424000FB6029E0FFF738FFF86025E0FFF7F4FE98
:10425000F86021E0FFF7C4FEF8601DE0FFF79CFE68
:10426000F86019E000F0DAF8F86015E000F0C4F842
:10427000F86011E000F084F8F8600DE000F0E6F876
:10428000F86009E0084BFB6006E04FF47A73FB60CE
:1042900002E00023FB6000BFFB6818461037BD46F4
:1042A00080BD00BF00700440006CDC0280B582B0AD
:1042B00000AF78600D497B685A6801F5825304337A
:1042C0001A607B681B7818467B685B7819467B68A8
:1042D0009B781A46FFF7F2FC7B68DB781846FFF7FD
:1042E000D5FC00BF0837BD4680BD00BF007004404C
:1042F00080B584B000AF214B9B79DBB203F00C0397
:104300009B08BB601D4B9B7CDBB203F010031B09B9
:104310007B60BB68032B28D801A252F823F000BFB2
:10432000534300005B43000063430000314300003F
:104330007B68002B05D0012B07D100F0B5F8F860A1
:1043400006E000F083F8F86002E00023FB6000BFA5
:104350000EE000F015F8F8600AE0FFF7BFFDF86026
:1043600006E0FFF711FDF86002E00023FB6000BFEC
:10437000FB6818461037BD4680BD00BF00400640B0
:1043800080B582B000AF1A4B5B78DBB203F002035A
:10439000002B06D1164B9B79DBB203F02003002BD8
:1043A00001D0002320E0FFF7BBFD78607B68002B85
:1043B00001D17B6818E00E4BDB78DBB203F06003C1
:1043C0005B09FB700A4BDB78DBB203F08003DB098F
:1043D000BB70FA78BB7807495200134431F81330A8
:1043E0001A467B6803FB02F318460837BD4680BDBA
:1043F0000040064038A0000080B500AF064B1B7897
:10440000DBB203F00203002B01D1002302E0FFF72F
:1044100065FD0346184680BD0040064080B582B069
:1044200000AFFFF77DFD78607B68002B08D0FFF7B9
:104430005FFF0346DA087B689A4201D37B6800E09D
:10444000002318460837BD4680BD00BF80B582B046
:1044500000AF144B9B79DBB203F04003002B01D17A
:1044600000231BE0FFF772FD78600E4B1B79DBB277
:1044700003F0070301337A68B2FBF3F37B60094B67
:104480005B79DBB203F01F0303F110027B6802FBD0
:1044900003F37B607B685B087B607B6818460837AA
:1044A000BD4680BD0040064080B400AF034B1B6892
:1044B0001846BD465DF8047B704700BFAC00FF1F87
:1044C00080B485B000AF0346FB71204B1B7BDBB291
:1044D00003F00302FB799A4202D00123FB7301E04F
:1044E0000023FB731949194B1B7BDBB223F0030339
:1044F000DAB2FB7903F00303DBB21343DBB20B73D5
:10450000FB79002B0ED1114B5B78DBB203F0040377
:10451000002B07D000BF0D4B9B79DBB203F00203E9
:10452000002BF8D0FB7B002B09D040F2DC53BB60A2
:1045300000E000BFBB685A1EBA60002BF9D100230F
:1045400018461437BD465DF8047B704700400640AE
:1045500080B485B000AF0346FB710B46BB711346B8
:104560007B713B4B9B79DBB203F00C039B08FB6038
:10457000374B9B79DBB203F00103FB72344B1B7AA0
:10458000DBB203F00E035B08BB727A79BB7A9A4206
:104590002CD0FB7A012B19D1FB68012B06D02C4BB8
:1045A0001B78DBB203F00203002B0FD0284A284B04
:1045B0005B78DBB223F00103DBB2537000BF244B06
:1045C0009B79DBB203F00103002BF8D12049204B8B
:1045D0001B7ADBB223F02F03DAB27B795B00DBB20C
:1045E00003F00E03DBB21343DBB20B721849184B16
:1045F0005B78DBB223F00103DAB2BB7903F001038D
:10460000DBB21343DBB24B701149114B1B78DBB2A9
:1046100023F00303DAB2FB791343DBB20B70FB68C0
:10462000012B04D0FB7903F00203002B08D000BF5C
:10463000074B9B79DBB203F00102BB799A42F7D1B9
:10464000002318461437BD465DF8047B704700BF51
:104650000040064080B584B000AF78607B68002BD6
:1046600006D11D4B1D4A40F299311D4800F024F936
:104670000023FB737B685B7803F00703DAB2FB7BF4
:104680001343FB73174AFB7B13711649154B5B7978
:10469000DBB223F01F03DAB27B689B7803F01F03C1
:1046A000DBB21343DBB24B710E490E4B1B79DAB20E
:1046B0007B681B781343DBB243F04003DBB20B7122
:1046C00000BF084B9B79DBB203F04003002BF8D00E
:1046D00000BF1037BD4680BDF492000048A0000026
:1046E000509200000040064080B584B000AF786072
:1046F0007B681B681846FFF731FC0346FB737B6839
:104700001B7919461948FFF725FB7B6806331946C4
:104710001648FFF7FFFA1649154B5B78DBB223F01A
:104720003C03DAB2FB7B1B01DBB203F03003DBB2EC
:104730001343DAB27B685B791343DBB24B707B685F
:104740005B79002B0DD0094B1B78DBB25BB2002BE1
:1047500007DA00BF064B9B79DBB203F00203002BA4
:10476000F8D000BF1037BD4680BD00BF00500640E6
:104770000040064080B582B000AF03463960FB714F
:104780002F4A2F4B5B78DBB223F00203DBB253706E
:104790002B4A2B4B1B78DBB203F03B03DBB263F0FD
:1047A0007F03DBB2137000BF254B9B79DBB203F0B4
:1047B0001C03082BF8D1224A214B5B79DBB223F092
:1047C0004003DBB2537100BF1D4B9B79DBB203F09A
:1047D0002003002BF8D1FB79002B02D13868FFF7BA
:1047E00039FF1749164B1B7CDBB223F01003DAB2FA
:1047F000FB791B01DBB203F01003DBB21343DBB226
:104800000B7400BFFA790E4B9B7CDBB203F01003F4
:104810001B099A42F6D10A4A094B5B79DBB243F095
:104820004003DBB2537100BF054B9B79DBB203F051
:104830002003002BF8D0002318460837BD4680BD62
:104840000040064080B582B000AF03463A60FB717D
:104850000B46BB713B68002B06D1134B134A40F249
:10486000CA61134800F028F8FB791846FFF728FEC4
:10487000BB7939681846FFF77DFF0E4A0D4B1B7850
:10488000DBB203F03F03DBB2137000BF094B9B792F
:10489000DBB203F00C039B08032BF7D1002318466F
:1048A0000837BD4680BD00BFF49200005CA0000048
:1048B000509200000040064080B586B002AFF8601C
:1048C000B9607A603B607B680093BB68FA683968BE
:1048D0000248FCF7BBFE00BEFDE700BFFC920000F3
:1048E00080B483B000AF78607B681B68DB0FDBB2FD
:1048F00018460C37BD465DF8047B704780B582B022
:1049000000AF786039607868FFF7EAFF0346002B54
:1049100005D0074B1B6839687868984704E0054B59
:104920001B6839687868984700BF0837BD4680BD66
:10493000BC00FF1FC000FF1F80B500AF094B1B6804
:10494000002B06D1084B094A40F24C610848FFF79A
:10495000B3FF044B1B6819460648FFF7CFFF00BFA3
:1049600080BD00BFB000FF1FAC93000070A000002E
:104970006493000000C0024080B500AF094B5B6843
:10498000002B06D1084B094A40F254610848FFF752
:1049900093FF044B5B6819460648FFF7AFFF00BF63
:1049A00080BD00BFB000FF1FBC93000088A00000C6
:1049B0006493000000D0024080B500AF094B9B68B3
:1049C000002B06D1084B094A40F25C610848FFF70A
:1049D00073FF044B9B6819460648FFF78FFF00BF23
:1049E00080BD00BFB000FF1FCC930000A0A000005E
:1049F0006493000000C00A4080B584B000AF7860C6
:104A000039603B681F2B06D9194B1A4A4FF4E471E1
:104A10001948FFF751FF0023FB607A683B685B0190
:104A2000134403F580531C331B889BB203F08003AF
:104A3000DB09FA681343FB607B68DA6A3B6822FA99
:104A400003F303F001035B00FA681343FB607B6828
:104A50005A6A3B6822FA03F303F001039B00FA68E9
:104A60001343FB60FB6818461037BD4680BD00BF8E
:104A70001C940000B8A000000494000090B589B018
:104A800000AF78607B68002B06D14C4B4C4A4FF44A
:104A90004E714C48FFF710FF7B689B687A68127C68
:104AA000DA777B68DB68002B08D17B681C687B6841
:104AB0005968002301227868A0477BE07B689A68E8
:104AC0007B681B7C5B01134403F5805318331B6820
:104AD0007B617B689A687B681B7C5B01134403F5F0
:104AE00080531C331B889BB203F08003002B14BF40
:104AF00001230023FB747B68DB681A467B699B1AE1
:104B00007B617B695B09FB60FB7C002B02D0FB684F
:104B1000FB760EE0FB68002B04D0FB68DBB2013BA8
:104B2000DBB205E07B681B7D5BB2DBB2013BDBB235
:104B3000FB76FB7E7A68527C52B293420FD17B683F
:104B4000DB7C5AB27B681B7D5BB29A4204D17B68E6
:104B5000DB7C5BB2FB6112E00023FB610FE0FB7EBC
:104B60007A68527C52B29B1AFB61FB69002B06DA11
:104B70007B681B7D5BB21A46FB691344FB6197F9A6
:104B80001B207B685A747B68DB7C5BB2DAB2FB6902
:104B9000DBB2D31ADBB25AB27B68DA747B681B686B
:104BA000002B07D07B681C687B685968FB69FA7C1E
:104BB0007868A04700BF2437BD4690BDD894000058
:104BC000D4A000000494000080B500AF00210E487E
:104BD000FFF712FF034603F00403002B04D00B4B36
:104BE0001B681846FFF74AFF10210748FFF704FF2C
:104BF000034603F00403002B04D0044B1B6C18463F
:104C0000FFF73CFF00BF80BD00800040C400FF1FD5
:104C100080B500AF01210E48FFF7EEFE034603F01A
:104C20000403002B04D00B4B5B681846FFF726FFEC
:104C300011210748FFF7E0FE034603F00403002BB1
:104C400004D0044B5B6C1846FFF718FF00BF80BD13
:104C500000800040C400FF1F80B500AF02210E4855
:104C6000FFF7CAFE034603F00403002B04D00B4BEE
:104C70009B681846FFF702FF12210748FFF7BCFEAA
:104C8000034603F00403002B04D0044B9B6C18462E
:104C9000FFF7F4FE00BF80BD00800040C400FF1F8E
:104CA00080B500AF03210E48FFF7A6FE034603F0D0
:104CB0000403002B04D00B4BDB681846FFF7DEFE25
:104CC00013210748FFF798FE034603F00403002B67
:104CD00004D0044BDB6C1846FFF7D0FE00BF80BD4C
:104CE00000800040C400FF1F80B500AF04210E48C3
:104CF000FFF782FE034603F00403002B04D00B4BA6
:104D00001B691846FFF7BAFE14210748FFF774FE27
:104D1000034603F00403002B04D0044B1B6D18461C
:104D2000FFF7ACFE00BF80BD00800040C400FF1F45
:104D300080B500AF05210E48FFF75EFE034603F085
:104D40000403002B04D00B4B5B691846FFF796FE5B
:104D500015210748FFF750FE034603F00403002B1C
:104D600004D0044B5B6D1846FFF788FE00BF80BD82
:104D700000800040C400FF1F80B500AF06210E4830
:104D8000FFF73AFE034603F00403002B04D00B4B5D
:104D90009B691846FFF772FE16210748FFF72CFEA5
:104DA000034603F00403002B04D0044B9B6D18460C
:104DB000FFF764FE00BF80BD00800040C400FF1FFD
:104DC00080B500AF07210E48FFF716FE034603F03B
:104DD0000403002B04D00B4BDB691846FFF74EFE93
:104DE00017210748FFF708FE034603F00403002BD2
:104DF00004D0044BDB6D1846FFF740FE00BF80BDBA
:104E000000800040C400FF1F80B500AF08210E489D
:104E1000FFF7F2FD034603F00403002B04D00B4B15
:104E20001B6A1846FFF72AFE18210748FFF7E4FD22
:104E3000034603F00403002B04D0044B1B6E1846FA
:104E4000FFF71CFE00BF80BD00800040C400FF1FB4
:104E500080B500AF09210E48FFF7CEFD034603F0F1
:104E60000403002B04D00B4B5B6A1846FFF706FEC9
:104E700019210748FFF7C0FD034603F00403002B88
:104E800004D0044B5B6E1846FFF7F8FD00BF80BDF1
:104E900000800040C400FF1F80B500AF0A210E480B
:104EA000FFF7AAFD034603F00403002B04D00B4BCD
:104EB0009B6A1846FFF7E2FD1A210748FFF79CFDA1
:104EC000034603F00403002B04D0044B9B6E1846EA
:104ED000FFF7D4FD00BF80BD00800040C400FF1F6D
:104EE00080B500AF0B210E48FFF786FD034603F0A7
:104EF0000403002B04D00B4BDB6A1846FFF7BEFD02
:104F00001B210748FFF778FD034603F00403002B3D
:104F100004D0044BDB6E1846FFF7B0FD00BF80BD28
:104F200000800040C400FF1F80B500AF0C210E4878
:104F3000FFF762FD034603F00403002B04D00B4B84
:104F40001B6B1846FFF79AFD1C210748FFF754FD1D
:104F5000034603F00403002B04D0044B1B6F1846D8
:104F6000FFF78CFD00BF80BD00800040C400FF1F24
:104F700080B500AF0D210E48FFF73EFD034603F05C
:104F80000403002B04D00B4B5B6B1846FFF776FD38
:104F90001D210748FFF730FD034603F00403002BF3
:104FA00004D0044B5B6F1846FFF768FD00BF80BD5F
:104FB00000800040C400FF1F80B500AF0E210E48E6
:104FC000FFF71AFD034603F00403002B04D00B4B3C
:104FD0009B6B1846FFF752FD1E210748FFF70CFD9B
:104FE000034603F00403002B04D0044B9B6F1846C8
:104FF000FFF744FD00BF80BD00800040C400FF1FDC
:1050000080B500AF0F210E48FFF7F6FC034603F012
:105010000403002B04D00B4BDB6B1846FFF72EFD6F
:105020001F210748FFF7E8FC034603F00403002BA9
:1050300004D0044BDB6F1846FFF720FD00BF80BD96
:1050400000800040C400FF1F80B483B000AF7860D0
:105050000B46FB70FB78002B06D07B685B6A43F045
:105060000C027B685A6205E07B685B6A23F00C02E5
:105070007B685A6200BF0C37BD465DF8047B704701
:1050800090B583B000AF786039603B68002B06D1E3
:10509000104B114A40F23C611048FFF70DFC7B6851
:1050A0005B6803F04063002B0FD07B684FF04062D9
:1050B0005A603B68DB69002B07D03B68DC693B68C2
:1050C0001B6A012239687868A04700BF0C37BD46CB
:1050D00090BD00BF5C960000E4A000003C9600007C
:1050E00090B583B000AF786039603B68002B06D183
:1050F000104B114A40F251611048FFF7DDFB7B680D
:105100005B6803F04073002B0FD07B684FF0407258
:105110005A603B68DB69002B07D03B68DC693B6861
:105120001B6A002239687868A04700BF0C37BD466B
:1051300090BD00BF5C960000FCA000003C96000003
:1051400090B585B000AF786039603B68002B06D120
:105150001D4B1E4A40F263611D48FFF7ADFB1D4B1E
:10516000FB607B685B6803F40033002B14D07B6822
:105170004FF400325A6000217868FFF765FF3B6802
:10518000DB69002B1CD03B68DC693B681B6A03228F
:1051900039687868A04713E07B685B68FA68134059
:1051A000FB607B68FA685A603B68DB69002B07D0BC
:1051B0003B68DC693B681B6A022239687868A04753
:1051C00000BF1437BD4690BD5C96000014A10000DE
:1051D0003C96000000007C6080B500AF034B1B686C
:1051E00019460348FFF74CFF00BF80BD4401FF1F75
:1051F00000000C4080B500AF034B1B681946034804
:10520000FFF76EFF00BF80BD4401FF1F00000C4090
:1052100080B500AF034B1B6819460348FFF790FFAA
:1052200000BF80BD4401FF1F00000C4080B400AFF0
:1052300000BFBD465DF8047B704700BF80B483B0FB
:1052400000AF786039607B683A681A6200BF0C373B
:10525000BD465DF8047B704780B483B000AF7860D2
:1052600039607B681A6B3B68134018460C37BD46A3
:105270005DF8047B704700BF80B483B000AF7860F6
:1052800039607B683A681A6300BF0C37BD465DF829
:10529000047B704780B483B000AF786039607B686E
:1052A0009A6A3B68DB431A407B689A6200BF0C37FE
:1052B000BD465DF8047B704780B485B000AF786070
:1052C0000B46FB707B681B6803F00053002B14D067
:1052D0007B685B6B03F070631B0EFB73FB7B01331E
:1052E000DBB25B00DBB20533FB73FA78FB7B9A42DF
:1052F00001D8012302E0002300E000231846143700
:10530000BD465DF8047B704780B582B000AF786021
:105310000B46FB70FB780F2B05D90B4B0B4AF22188
:105320000B48FFF7C9FA7B689B6AFA78012101FAFA
:1053300002F21340002B01D0012300E000231846A5
:105340000837BD4680BD00BF4C9900002CA100006D
:105350003099000080B582B000AF78600B46FB70DA
:105360001346BB70FA787B681B6803F07F039A4290
:1053700006D9214B214A4FF4FF712148FFF79CFACF
:10538000FB7819467868FFF797FF0346002B06D095
:105390001C4B1A4A40F202211948FFF78DFABB78DC
:1053A000002B08D0FB787A6808331B0113444FF0B8
:1053B00000621A6006E0FB787A6808331B01134428
:1053C00000221A60FB787A6808331B011344043307
:1053D00000221A60FB787A681B011344883300228C
:1053E0001A60FB787A681B0113448C3300221A6020
:1053F00000BF0837BD4680BD8C9A000044A1000064
:1054000030990000B89A000080B586B000AFF8600F
:105410000B467A60FB72FA7AFB681B6803F07F0325
:105420009A4206D9434B444A40F2FE214348FFF7D3
:1054300043FA7B68002B06D1414B3F4A40F2FF21E3
:105440003E48FFF739FAFB7A1946F868FFF734FF50
:105450000346002B06D03B4B374A40F20631374813
:10546000FFF72AFAFB7AFA6808331B0113441B681A
:105470007B617B691B0EDBB203F00F03FB74FB7CCB
:10548000022B02D0FB7C062B4CD1FB7AFA68083346
:105490001B01134404331B6823F060417A6853688E
:1054A00061F31C0353607B6903F40013002B14BFEA
:1054B00001230023D9B27A68937861F3451393707E
:1054C0007B6903F48013002B14BF01230023D9B29E
:1054D0007A68937861F3041393707B691B0CDBB2D9
:1054E00003F00F03D9B27A68937861F303039370E2
:1054F000FB7AFA681B01134488331A687B689A6048
:10550000FB7AFA681B0113448C331A687B68DA60F3
:10551000FB689B68FB7C022B01D1002305E041F274
:10552000B94302E0FB689B68012318461837BD4663
:1055300080BD00BF8C9A00005CA100003099000083
:10554000609B0000B89A000080B584B000AF78601E
:1055500039603B68002B06D12E4B2F4A40F239317F
:105560002E48FFF7A9F97B681B6803F00053002B56
:105570004BD07B68D3F88030FB607B68D3F88430F5
:1055800023F060413A68536861F31C035360FB6881
:1055900003F40013002B14BF01230023D9B23A688F
:1055A000937861F345139370FB6803F48013002B29
:1055B00014BF01230023D9B23A68937861F304132E
:1055C0009370FB681B0CDBB203F00F03D9B23A688F
:1055D000937861F3030393707B68D3F888203B686A
:1055E0009A607B68D3F88C203B68DA607B68DB6C60
:1055F000DBB2C3F3080399B23A68538861F3CF135F
:1056000053807B689B68002300E001231846103715
:10561000BD4680BD609B000070A100003099000075
:1056200080B584B000AFF860B9601346FB71BB6809
:10563000002B06D1204B214A40F232412048FFF78F
:105640003BF9FA79FB681B6803F07F039A4206D99D
:105650001C4B1A4A40F233411948FFF72DF9FB79E8
:105660001946F868FFF728FE0346002B06D0164BB4
:10567000124A40F237411248FFF71EF9FB79012226
:1056800002FA03F31946F868FFF704FEFA79BB68DB
:105690000232002143F82210FB7901221946F868F2
:1056A000FFF758FEFB79BA681344002283F84C20B8
:1056B00000BF1037BD4680BD689B000084A100007C
:1056C000309900008C9A0000B89A000080B584B030
:1056D00000AFF860B9601346FB71BB68002B06D1C0
:1056E0001D4B1E4A40F249411D48FFF7E5F8FA7983
:1056F000FB681B6803F07F039A4206D9194B174ACF
:1057000040F24A411648FFF7D7F8FB791946F86886
:10571000FFF7D2FD0346002B06D0134B0F4A40F291
:105720004E410F48FFF7C8F8FB79012202FA03F354
:105730001946F868FFF7AEFDFA79BB68023200211E
:1057400043F82210FB79BA681344002283F84C20F6
:1057500000BF1037BD4680BD689B0000A0A10000BF
:10576000309900008C9A0000B89A000080B582B091
:1057700000AF786039603B68002B06D10D4B0E4AB4
:1057800040F25C410D48FFF797F87B681B6803F017
:105790000053002B06D0E0217868FFF77BFD3B68C3
:1057A00000229A643B68002283F85C2000BF08371F
:1057B000BD4680BD689B0000C0A10000309900007C
:1057C00090B587B002AF786039603B68002B06D196
:1057D000824B834A40F26F418248FFF76DF841F2F5
:1057E000BF43FB607B681B6ABB60BA687E4B13409B
:1057F000002B07D041F2BE43FB607B497868FFF77E
:105800001DFDC2E00023BB6016E00122BB6802FA66
:1058100003F319467868FFF71FFD0346002B08D0F5
:10582000BB68DBB219467868FFF76EFD0346002BB4
:1058300006D1BB680133BB60BB680F2BE5D900E024
:1058400000BFBB68102B00F0C4803B6893F85C304D
:10585000DBB2002B2FD00122BB6802FA03F3802BAE
:1058600029DC0122BB6802FA03F3402B08D0802B0D
:1058700002D0202B08D019E041F2BC43FB6019E0B4
:1058800041F2B443FB6015E03B689B6C19467868B5
:10589000FFF75AFEF860FB68002B02D141F2BB43D0
:1058A000FB6039687868FFF761FF03E041F2BF43AE
:1058B000FB6000BF61E03A68BB6813444C331B785F
:1058C000DBB2013B032B54D801A252F823F000BFF6
:1058D000E158000015590000495900005F590000C7
:1058E000BB68D9B23B68BA68023253F822301A4614
:1058F0007868FFF789FDF860FB68002B02D141F260
:10590000B843FB60BB68DBB21A4639687868FFF7BA
:10591000DDFE32E0BB68D9B23B68BA68023253F8A8
:1059200022301A467868FFF76FFDF860FB68002B9D
:1059300002D141F2B843FB60BB68DBB21A4639685A
:105940007868FFF7C3FE18E041F2B543FB60BB681F
:10595000DBB21A4639687868FFF762FE0DE03A68F4
:10596000BB6813444C3302221A7041F2B643FB6009
:1059700003E041F2BF43FB6000BF0122BB6802FAB3
:1059800003F319467868FFF777FC3B681B68002B28
:1059900009D03B681C683B685B680093BB68FA6889
:1059A00039687868A04741F2BF43FB607B681B6A97
:1059B000BB604FF0FF317868FFF74EFC0346002BC9
:1059C0007FF413AFBA68084B1340002B7FF40DAF80
:1059D00000E000BF00BF1437BD4690BD689B0000CB
:1059E000E4A10000309900000700030080B500AF7B
:1059F000094B1B68002B06D1084B094A40F2FA41BB
:105A00000848FEF759FF044B1B6819460648FFF784
:105A1000D7FE00BF80BD00BF4801FF1FA89B00004C
:105A200000A20000309900000040024080B500AFA5
:105A3000094B5B68002B06D1084B094A40F2035121
:105A40000848FEF739FF044B5B6819460648FFF724
:105A5000B7FE00BF80BD00BF4801FF1FBC9B000018
:105A600018A200003099000000400A4080B483B0C2
:105A700000AF0346FB71094997F907305B09FA79D2
:105A800002F01F02012000FA02F241F8232000BFB9
:105A90000C37BD465DF8047B704700BF00E100E0B5
:105AA00080B485B000AF78607B681B0C03F1804345
:105AB00003F58E23FB60FB68FA6811687A6892B27E
:105AC000012000FA02F20A431A6000BF1437BD46F3
:105AD0005DF8047B704700BF80B582B000AF03461D
:105AE000FB7197F907301846FFF7C0FF00BF083772
:105AF000BD4680BD80B483B000AF786039603B683C
:105B000003F48053002B0BD07B689B79DBB25AB235
:105B10003B681B0A5BB213435BB2DAB27B689A71D3
:105B20003B6803F48043002B0BD07B689B79DBB28E
:105B30005AB23B681B0A5BB213435BB2DAB27B68B2
:105B40009A713B68DAB27B68DA7000BF0C37BD46E9
:105B50005DF8047B704700BF80B584B000AF78600B
:105B60000023FB6009E00E4AFB6852F823207B68A3
:105B70009A4206D0FB680133FB60FB68032BF2D925
:105B800000E000BFFB68032B05D9064B064AA6219F
:105B90000648FEF791FEFB6818461037BD4680BDEB
:105BA000B0A20000D09B0000D4A20000F89B00002F
:105BB000B0B586B000AFF860B9607A6000237B6151
:105BC0007B685B79FB744FF6FF733B82BA687B6836
:105BD00014461D460FCD0FC495E8030084E803006A
:105BE0007B685A69BB689A61BB681B7B002B09D034
:105BF000BB6802221A777B685B79012B05D10023F1
:105C0000FB7402E0BB6801221A7700BFFB68DB78F7
:105C1000DBB25BB2002B05DB3B8A013B3B823B8A5C
:105C2000002BF3D13B8A002B02D14FF48A631CE096
:105C300045F21201F868FFF75DFFBB681B6803F0CF
:105C40000203002B08D0BB681B79FA7C1946F86860
:105C500000F0FAFA786107E0BB681B79FA7C194614
:105C6000F86800F0BFFA78617B6918461837BD46BE
:105C7000B0BD00BF80B485B000AF7860396000234C
:105C8000FB603B6803F01003002B06D07B681022FA
:105C9000DA7040F24F43FB6007E03B6803F001031A
:105CA000002B02D040F24E43FB60FB6818461437CD
:105CB000BD465DF8047B704780B588B000AFF860E2
